:101C000012C02CC02BC02AC029C028C027C026C0A3
:101C100025C024C023C022C021C020C01FC01EC0B8
:101C20001DC01CC01BC011241FBECFE5D4E0DEBF09
:101C3000CDBF10E0A0E6B0E0E4EDFFE102C005900A
:101C40000D92A236B107D9F711E0A2E6B0E001C0CB
:101C50001D92AA36B107E1F74AD0BAC1D1CF5D9B38
:101C6000FECF8CB90895CF92DF92EF92FF92C12CF4
:101C7000D12C760112C08FEFC81AD80AE80AF80AE8
:101C800081E0C81689E0D8068DE3E806F10428F063
:101C9000E0916200F091630009955F9BECCF8CB1FD
:101CA000FF90EF90DF90CF900895CF93DF93D82FE0
:101CB000C0E002C0D8DFCF5FCD13FCCFDF91CF9162
:101CC0000895CF93C82FCFDF803239F484E1C7DF86
:101CD0008C2FC5DF80E1CF91C2CFCF910895C3DFB4
:101CE000803221F484E1BBDF80E1B9CF08950000A8
:101CF00010BC89E189B988E18AB986E880BDBD9ABE
:101D00001092680150E220E030E009C088B38527D6
:101D100088BBC9010197F1F74F5F4093680140917B
:101D20006801403198F39FDF803309F430C081337C
:101D300099F499DF8032B9F784E191DF81E48FDF94
:101D400086E58DDF82E58BDF80E289DF89E487DF4E
:101D500083E585DF80E51FC1803429F484DF863880
:101D6000B0F081DF14C0813471F47DDF803811F46C
:101D700082E003C0813819F481E0A3DFD4CF823838
:101D8000F9F482E1FACF823421F484E18EDFA7DF17
:101D9000CACF853411F485E0F9CF8035C1F38135A0
:101DA000B1F38235A1F3853539F45DDF80936400AA
:101DB0005ADF80936500EBCF863521F484E075DF30
:101DC00080E0DBCF843609F08FC04DDF8093670160
:101DD0004ADF80936601809169018E7F809369015B
:101DE00042DF853429F48091690181608093690123
:101DF00006E610E0780104C036DFF70181937F0129
:101E0000970126563040809166019091670128170E
:101E1000390790F328DF803209F085CF809169017E
:101E200080FD12C01CC0F80161918F018091640097
:101E300090916500C0D080916400909165000196FA
:101E400090936500809364009801265630408091FD
:101E50006601909167012817390728F343C0F89469
:101E6000E199FECF1127E0916400F0916500EE0F3B
:101E7000FF1FC6E6D0E0809166019091670180FF68
:101E800001C00196103051F422D003E000935700B6
:101E9000E8951DD001E100935700E895099019904D
:101EA00016D001E000935700E8951395103258F0D2
:101EB00011270DD005E000935700E89508D001E107
:101EC00000935700E8953296029739F0DBCF0091E6
:101ED000570001700130D9F30895103011F00296C7
:101EE000E7CF112484E157C0843709F047C0BBDE37
:101EF00080936701B8DE80936601B5DE9091690139
:101F0000853421F49160909369010DC09E7F909378
:101F100069018091640090916500880F991F9093EA
:101F20006500809364009FDE803209F0FCCE84E17E
:101F300096DE00E010E01AC02091690180916400F3
:101F40009091650020FF02C02ED004C021FD03C087
:101F5000FC01849184DE809164009091650001967B
:101F600090936500809364000F5F1F4F809166011E
:101F70009091670108171907F8F20EC0853779F4B8
:101F800072DE803209F0CFCE84E169DE8EE167DE59
:101F900083E965DE87E063DE80E161DEC4CE8637FB
:101FA00009F0C1CE0DCFE199FECF9FBB8EBBE09A69
:101FB00099278DB30895262FE199FECF9FBB8EBB45
:101FC0002DBB0FB6F894E29AE19A0FBE01960895E0
:041FD000F894FFCFB3
:021FD40080008B
:0400000300001C00DD
:00000001FF
